:020000020000FC
:100000000EEF07B9209A0CE10AB912D078F4112347
:10001000E1F70E9424000E942C000E9434000E94FC
:100020003C000E9434000E942C00EFCF10E0EDCF86
:10003000309908C093E088EE0197F1F7309902C03B
:10004000089408958894089505B121E0022705B920
:100050000E944400289808950BB124E002270BB9B0
:100060000E9444005A9808950BB128E002270BB96A
:100070000E9444005B9808950BB120E102270BB960
:100080000E9444005C98089582E374E66AE06A95F1
:0E009000F1F77A95E1F78A95D1F7000008950F
:00000001FF
